:020000040000FA
:100000003807002025020000ED0300007103000006
:10001000E9030000CD0200006F06000000000000B0
:1000200000000000000000000000000011040000BB
:10003000D102000000000000EF03000029050000CD
:100040003F0200003F0200003F0200003F020000AC
:100050003F0200003F0200003F0200003F0200009C
:100060003F0200003F0200003F0200003F0200008C
:100070003F0200003F0200003F0200003F0200007C
:100080003F0200003F0200003F0200003F0200006C
:100090003F0200003F0200003F0200003F0200005C
:1000A0003F0200003F0200003F0200003F0200004C
:1000B0003F0200003F0200003F0200003F0200003C
:1000C0003F0200003F0200003F0200003F0200002C
:1000D0003F020000890500003F0200003F020000CF
:1000E0003F0200003F0200003F0200003F0200000C
:1000F0003F0200003F0200003F0200003F020000FC
:100100003F0200003F0200003F0200003F020000EB
:100110003F0200003F0200003F0200003F020000DB
:100120003F0200003F0200003F0200003F020000CB
:100130003F0200003F0200003F0200003F020000BB
:100140003F0200003F0200003F0200003F020000AB
:100150003F0200003F0200003F0200003F0200009B
:100160003F0200003F0200003F0200003F0200008B
:100170003F0200003F0200003F0200003F0200007B
:100180003F0200003F02000000F002F800F03AF8E1
:100190000AA090E8000C82448344AAF10107DA45E2
:1001A00001D100F02FF8AFF2090EBAE80F0013F0FA
:1001B000010F18BFFB1A43F001031847BC060000EB
:1001C000DC060000103A24BF78C878C1FAD852077C
:1001D00024BF30C830C144BF04680C6070470000C1
:1001E0000023002400250026103A28BF78C1FBD840
:1001F000520728BF30C148BF0B6070471FB51FBDF5
:1002000010B510BD00F033F81146FFF7F7FF00F00E
:1002100093FA00F051F803B4FFF7F2FF03BC00F0CB
:1002200028FA00000948804709480047FEE7FEE732
:10023000FEE7FEE7FEE7FEE7FEE7FEE7FEE7FEE796
:1002400004480549054A064B704700002D0500008B
:100250008901000038010020380700203803002001
:1002600038030020704770477047704770477546E5
:1002700000F028F8AE4605006946534620F0070016
:10028000854618B020B5FFF7DBFFBDE820404FF0F2
:1002900000064FF000074FF000084FF0000B21F070
:1002A0000701AC46ACE8C009ACE8C009ACE8C0093D
:1002B000ACE8C0098D4670470446AFF30080204685
:1002C000FFF7A9FF00487047D400002000BFFEE7F9
:1002D0007047F0B50A4600210023002400BF3DE02E
:1002E000012505FA01F3156805EA03049C4234D19F
:1002F00005684F000326BE40B543056015794E00E2
:10030000B5400668354305601579012D02D0157991
:10031000022D16D185684F000326BE40B543856087
:1003200055794E00B540866835438560456801269D
:100330008E40B5434560456896798E40B6B23543E8
:100340004560C5684F000326BE40B543C560D579FA
:100350004E00B540C6683543C560491C1029BFD35F
:10036000F0BD418370470AB1018300E041837047CB
:1003700000BFFEE71CB50121482000F039F840F627
:100380000C60009001208DF8040000208DF806001C
:1003900003208DF8050001208DF8070069461048FC
:1003A000FFF797FF40F68C610D48FFF7DAFF4FF437
:1003B0004250009001208DF8040000208DF80600C6
:1003C00003208DF8050001208DF8070069460548D7
:1003D000FFF77FFF4FF442510248FFF7C2FF1CBDF9
:1003E00000180240000C024000BFFEE77047704753
:1003F00029B1064A12680243044B1A6004E0034A1A
:1004000012688243014B1A60704700003038024086
:10041000704700000CB5002001900090344800683F
:1004200040F480303249086000BF3148006800F471
:10043000003000900198401C0190009818B9019874
:10044000B0F5A04FF1D12A48006800F4003010B197
:100450000120009001E0002000900098012846D182
:1004600023484030006840F0805021494031086006
:100470002048006840F440401E4908601C4808308D
:1004800000681B49083108600846006840F40040D5
:1004900008600846006840F4A05008601648091F2C
:1004A0000860081F006840F08070091F086000BFE6
:1004B0000F48006800F000700028F9D040F2057085
:1004C0000E4908600A480830006820F00300084917
:1004D000083108600846006840F00200086000BF6C
:1004E00003480830006800F00C000828F8D10CBD63
:1004F000003802400070004008544007003C0240B1
:10050000042808D14FF0E021096941F004014FF0BF
:10051000E022116107E04FF0E021096921F00401B8
:100520004FF0E022116170477047000010B512488B
:10053000006840F001001049086000200E490831B1
:1005400008600D4800680D4908400B4908600C48D8
:10055000091D0860081F006820F48020091F08603A
:10056000002005490C310860FFF754FF4FF0006090
:100570000449086010BD000000380240FFFFF6FE8D
:100580001030002408ED00E010B540F225511D4860
:1005900000F03EF810B31B4800F064F8C4B21A48EB
:1005A000008800F40040C8B91748008800F4804073
:1005B00060B10A2C03D000201349088020E01248C3
:1005C000008840F400401049088019E00D2C06D145
:1005D0000D48008840F480400B49088010E00A482C
:1005E0000088C0F30D0009490C5407480088401CDE
:1005F0000549088008460088C72801DD00200880DA
:1006000010BD000000100140080000200C00002078
:1006100070B50246002400230025002040F66A162B
:10062000B14200D100BFC1F3421501F01F03012602
:1006300006FA03F3012D02D19689334006E0022D1C
:1006400002D1168A334001E0968A33400C1201260B
:1006500006FA04F41688344013B10CB1012000E00E
:10066000002070BD01468888C0F30800704700BFB5
:10067000FEE7014600BF704710B504466FF0040066
:10068000FFF73EFFE11704EB5171C1F3C701074AC1
:1006900011701046007800EB4001C1EBC0104FF61E
:1006A000FF7101EAC0000249088010BD000000206F
:1006B0000200002070B504464FF4077094FBF0F080
:1006C000C6B24FF4077094FBF0F100FB114085B205
:1006D00005E04FF4077000F009F8701EC6B2002E56
:1006E000F7D115B1284600F001F870BD0146114A56
:1006F00012884A434FF0E0235A6100229A611A4659
:10070000126942F001021A6100BF4FF0E022106945
:1007100000F001021AB100F48032002AF5D04FF047
:10072000E022126922F001024FF0E0231A61002258
:100730009A61704702000020FFF71CFEA820FFF717
:100740009BFF94E00122D1024948FFF70CFE4FF4D1
:10075000FA70FFF7AFFF00224FF400614448FFF743
:1007600002FE4FF4FA70FFF7A5FF01229102404804
:10077000FFF7F9FD4FF4FA70FFF79CFF00224FF4EA
:1007800080613B48FFF7EFFD4FF4FA70FFF792FFEF
:10079000012251023648FFF7E6FD4FF4FA70FFF7E9
:1007A00089FF00224FF400713148FFF7DCFD4FF460
:1007B000FA70FFF77FFF012280212E48FFF7D3FD5B
:1007C0004FF4FA70FFF776FF002280212948FFF7E7
:1007D000CAFD4FF4FA70FFF76DFF0122082124488B
:1007E000FFF7C1FD4FF4FA70FFF764FF0022082104
:1007F0001F48FFF7B8FD4FF4FA70FFF75BFF0122C7
:1008000004211B48FFF7AFFD4FF4FA70FFF752FFCA
:10081000002204211648FFF7A6FD4FF4FA70FFF7F7
:1008200049FF012251031348FFF79DFD4FF4FA7071
:10083000FFF740FF00224FF400510E48FFF793FDF1
:100840004FF4FA70FFF736FF012211030948FFF752
:100850008AFD4FF4FA70FFF72DFF00224FF480510C
:100860000448FFF780FD4FF4FA70FFF723FF69E7B4
:1008700000180240000C0240980800000000002010
:100880000C000000C4010000A40800000C000020BF
:100890002C070000E0010000000000000000000044
:0408A0000000000054
:04000005000001896D
:00000001FF
