:020000040800F2
:1000000038070020290200086D040008F1030008E9
:1000100069040008D1020008FB0600080000000087
:100020000000000000000000000000009104000833
:1000300049030008000000006F040008A90500083B
:10004000430200084302000843020008430200087C
:10005000430200084302000843020008430200086C
:10006000430200084302000843020008430200085C
:10007000430200084302000843020008430200084C
:10008000430200084302000843020008430200083C
:10009000430200084302000843020008430200082C
:1000A000430200084302000843020008430200081C
:1000B000430200084302000843020008430200080C
:1000C00043020008430200084302000843020008FC
:1000D0004302000815060008430200084302000816
:1000E00043020008430200084302000843020008DC
:1000F00043020008430200084302000843020008CC
:1001000043020008430200084302000843020008BB
:1001100043020008430200084302000843020008AB
:10012000430200084302000843020008430200089B
:10013000430200084302000843020008430200088B
:10014000430200084302000843020008430200087B
:10015000430200084302000843020008430200086B
:10016000430200084302000843020008430200085B
:10017000430200084302000843020008430200084B
:10018000430200084302000800F002F800F03CF8C7
:100190000AA090E8000C82448344AAF10107DA45E2
:1001A00001D100F031F8AFF2090EBAE80F0013F0F8
:1001B000010F18BFFB1A43F0010318479406000013
:1001C000B4060000103A24BF78C878C1FAD85207A4
:1001D00024BF30C830C144BF04680C6070470000C1
:1001E0000023002400250026103A28BF78C1FBD840
:1001F000520728BF30C148BF0B6070471FB500F0E1
:1002000021FB1FBD10B510BD00F033F81146FFF7FC
:10021000F5FF00F095FA00F051F803B4FFF7F2FF94
:1002200003BC00F06CFA0000094880470948004709
:10023000FEE7FEE7FEE7FEE7FEE7FEE7FEE7FEE796
:10024000FEE7FEE704480549054A064B70470000F3
:10025000AD0500088901000838010020380700209A
:1002600038030020380300207047704770477047FC
:100270007047754600F028F8AE46050069465346BB
:1002800020F00700854618B020B5FFF7DBFFBDE87A
:1002900020404FF000064FF000074FF000084FF0ED
:1002A000000B21F00701AC46ACE8C009ACE8C0097E
:1002B000ACE8C009ACE8C0098D4670470446AFF30E
:1002C00000802046FFF7A9FF00487047D4000020B7
:1002D00000BFFEE71CB50121342000F0C9F8302032
:1002E000009000208DF8040003208DF80500012007
:1002F0008DF807006946114800F027F84FF4404098
:10030000009000208DF8040003208DF805000120E6
:100310008DF8070069460A4800F017F80F20009092
:1003200000208DF8040003208DF8050001208DF8D1
:1003300007006946034800F008F81CBD00100240A1
:1003400000080240001402407047F0B50A46002140
:100350000023002400BF3DE0012505FA01F31568E4
:1003600005EA03049C4234D105684F000326BE40D1
:10037000B543056015794E00B54006683543056004
:100380001579012D02D01579022D16D185684F00FF
:100390000326BE40B543856055794E00B54086685A
:1003A00035438560456801268E40B5434560456804
:1003B00096798E40B6B235434560C5684F00032636
:1003C000BE40B543C560D5794E00B540C6683543DB
:1003D000C560491C1029BFD3F0BD02460020136937
:1003E0000B400BB1012000E00020704741837047B3
:1003F00000BFFEE71CB50121482000F039F840F6A7
:100400000C60009001208DF8040000208DF806009B
:1004100003208DF8050001208DF80700694610487B
:10042000FFF793FF40F68C610D48FFF7DFFF4FF4B5
:100430004250009001208DF8040000208DF8060045
:1004400003208DF8050001208DF807006946054856
:10045000FFF77BFF4FF442510248FFF7C7FF1CBD77
:1004600000180240000C024000BFFEE770477047D2
:1004700029B1064A12680243044B1A6004E0034A99
:1004800012688243014B1A60704700003038024006
:10049000704700000CB500200190009034480068BF
:1004A00040F480303249086000BF3148006800F4F1
:1004B000003000900198401C0190009818B90198F4
:1004C000B0F5A04FF1D12A48006800F4003010B117
:1004D0000120009001E0002000900098012846D102
:1004E00023484030006840F0805021494031086086
:1004F0002048006840F440401E4908601C4808300D
:1005000000681B49083108600846006840F4004054
:1005100008600846006840F4A05008601648091FAB
:100520000860081F006840F08070091F086000BF65
:100530000F48006800F000700028F9D040F2057004
:100540000E4908600A480830006820F00300084996
:10055000083108600846006840F00200086000BFEB
:1005600003480830006800F00C000828F8D10CBDE2
:10057000003802400070004008544007003C024030
:10058000042808D14FF0E021096941F004014FF03F
:10059000E022116107E04FF0E021096921F0040138
:1005A0004FF0E022116170477047000010B5154808
:1005B000006840F47000134908601348006840F078
:1005C00001001149086000200F49083108600E48F9
:1005D00000680E4908400C4908600D48091D086074
:1005E000081F006820F48020091F086000200649C9
:1005F0000C310860FFF74EFF4FF000600149803971
:10060000086010BD88ED00E000380240FFFFF6FEF4
:100610001030002410B540F225511D4800F03EF87E
:1006200010B31B4800F064F8C4B21A48008800F404
:100630000040C8B91748008800F4804060B10A2C17
:1006400003D000201349088020E01248008840F4BD
:1006500000401049088019E00D2C06D10D48008893
:1006600040F480400B49088010E00A480088C0F33D
:100670000D0009490C5407480088401C05490880B2
:1006800008460088C72801DD0020088010BD000052
:1006900000100140080000200C00002070B5024648
:1006A000002400230025002040F66A16B14200D144
:1006B00000BFC1F3421501F01F03012606FA03F340
:1006C000012D02D19689334006E0022D02D1168A0F
:1006D000334001E0968A33400C12012606FA04F4F6
:1006E0001688344013B10CB1012000E0002070BD29
:1006F00001468888C0F30800704700BFFEE7014646
:1007000000BF704710B504466FF00400FFF738FFD4
:10071000E11704EB5171C1F3C701074A117010468C
:10072000007800EB4001C1EBC0104FF6FF7101EA09
:10073000C0000249088010BD000000200200002017
:10074000FFF758FEFFF7C6FDA820FFF7DBFF6DE0BF
:1007500010213748FFF741FE18B1012035490860E4
:1007600002E000203349086020213148FFF735FEC0
:1007700020B101202F49091F086003E000202D4906
:10078000091F08604FF480412B48FFF726FE20B177
:10079000012028490839086003E00020254908396C
:1007A00008604FF400412448FFF717FE18B10120FC
:1007B0002249086002E00020204908600121204809
:1007C000FFF70BFE20B101201A492039086003E031
:1007D000002018492039086002211948FFF7FDFD63
:1007E00020B1012013492439086003E00020114999
:1007F0002439086004211248FFF7EFFD20B10120E1
:100800000E491831086003E000200C4918310860D7
:1008100008210B48FFF7E1FD20B101200749143101
:10082000086003E0002005491431086090E70000EB
:1008300000100240AC024342000802409C82414248
:10084000001402404FF04070E1EE100A70470000C3
:1008500070080008000000200C000000C40100081F
:100860007C0800080C0000202C070000E0010008B4
:0C0870000000000000000000000000007C
:040000050800018965
:00000001FF
