:020000040800F2
:10000000380700202902000821040008A503000881
:100010001D040008D1020008AF060008000000001F
:10002000000000000000000000000000450400087F
:10003000D502000800000000230400085D05000848
:10004000430200084302000843020008430200087C
:10005000430200084302000843020008430200086C
:10006000430200084302000843020008430200085C
:10007000430200084302000843020008430200084C
:10008000430200084302000843020008430200083C
:10009000430200084302000843020008430200082C
:1000A000430200084302000843020008430200081C
:1000B000430200084302000843020008430200080C
:1000C00043020008430200084302000843020008FC
:1000D00043020008C9050008430200084302000863
:1000E00043020008430200084302000843020008DC
:1000F00043020008430200084302000843020008CC
:1001000043020008430200084302000843020008BB
:1001100043020008430200084302000843020008AB
:10012000430200084302000843020008430200089B
:10013000430200084302000843020008430200088B
:10014000430200084302000843020008430200087B
:10015000430200084302000843020008430200086B
:10016000430200084302000843020008430200085B
:10017000430200084302000843020008430200084B
:10018000430200084302000800F002F800F03CF8C7
:100190000AA090E8000C82448344AAF10107DA45E2
:1001A00001D100F031F8AFF2090EBAE80F0013F0F8
:1001B000010F18BFFB1A43F0010318472009000084
:1001C00040090000103A24BF78C878C1FAD8520715
:1001D00024BF30C830C144BF04680C6070470000C1
:1001E0000023002400250026103A28BF78C1FBD840
:1001F000520728BF30C148BF0B6070471FB500F0E1
:1002000067FC1FBD10B510BD00F033F81146FFF7B5
:10021000F5FF00F065FB00F051F803B4FFF7F2FFC3
:1002200003BC00F046FA000009488047094800472F
:10023000FEE7FEE7FEE7FEE7FEE7FEE7FEE7FEE796
:10024000FEE7FEE704480549054A064B70470000F3
:1002500061050008890100083801002038070020E6
:1002600038030020380300207047704770477047FC
:100270007047754600F028F8AE46050069465346BB
:1002800020F00700854618B020B5FFF7DBFFBDE87A
:1002900020404FF000064FF000074FF000084FF0ED
:1002A000000B21F00701AC46ACE8C009ACE8C0097E
:1002B000ACE8C009ACE8C0098D4670470446AFF30E
:1002C00000802046FFF7A9FF00487047D4000020B7
:1002D00000BFFEE7704701B502E00098401E0090A5
:1002E00000980028F9D108BDF0B50A460021002386
:1002F000002400BF3DE0012505FA01F3156805EA79
:1003000003049C4234D105684F000326BE40B54328
:10031000056015794E00B5400668354305601579CE
:10032000012D02D01579022D16D185684F000326C4
:10033000BE40B543856055794E00B540866835436B
:100340008560456801268E40B543456045689679CD
:100350008E40B6B235434560C5684F000326BE40A7
:10036000B543C560D5794E00B540C6683543C56014
:10037000491C1029BFD3F0BD0246002013690B4071
:100380000BB1012000E000207047024600205369B5
:100390000B400BB1012000E0002070474183704703
:1003A0000183704700BFFEE71CB50121342000F037
:1003B00039F83120009000208DF8040003208DF8DA
:1003C000050001208DF8070069461148FFF78CFFF2
:1003D0004FF44040009000208DF8040003208DF879
:1003E000050001208DF8070069460A48FFF77CFFE9
:1003F0000F20009000208DF8040003208DF80500E8
:1004000001208DF8070069460348FFF76DFF1CBD0A
:1004100000100240000802400014024000BFFEE746
:100420007047704729B1064A12680243044B1A60AC
:1004300004E0034A12688243014B1A6070470000CF
:1004400030380240704700000CB500200190009049
:100450003448006840F480303249086000BF3148B9
:10046000006800F4003000900198401C0190009852
:1004700018B90198B0F5A04FF1D12A48006800F4EE
:10048000003010B10120009001E0002000900098A1
:10049000012846D123484030006840F0805021496F
:1004A000403108602048006840F440401E49086020
:1004B0001C48083000681B4908310860084600687D
:1004C00040F4004008600846006840F4A05008600E
:1004D0001648091F0860081F006840F08070091F57
:1004E000086000BF0F48006800F000700028F9D0D5
:1004F00040F205700E4908600A480830006820F094
:1005000003000849083108600846006840F002000E
:10051000086000BF03480830006800F00C0008289D
:10052000F8D10CBD0038024000700040085440076C
:10053000003C0240042808D14FF0E021096941F055
:1005400004014FF0E022116107E04FF0E02109695A
:1005500021F004014FF0E022116170477047000064
:1005600010B51548006840F470001349086013483E
:10057000006840F001001149086000200F4908316F
:1005800008600E4800680E4908400C4908600D4894
:10059000091D0860081F006820F48020091F0860FA
:1005A000002006490C310860FFF74EFF4FF0006055
:1005B00001498039086010BD88ED00E00038024034
:1005C000FFFFF6FE1030002410B540F225511D4803
:1005D00000F03EF810B31B4800F064F8C4B21A48AB
:1005E000008800F40040C8B91748008800F4804033
:1005F00060B10A2C03D000201349088020E0124883
:10060000008840F400401049088019E00D2C06D104
:100610000D48008840F480400B49088010E00A48EB
:100620000088C0F30D0009490C5407480088401C9D
:100630000549088008460088C72801DD0020088099
:1006400010BD000000100140080000200C00002038
:1006500070B50246002400230025002040F66A16EB
:10066000B14200D100BFC1F3421501F01F030126C2
:1006700006FA03F3012D02D19689334006E0022DDC
:1006800002D1168A334001E0968A33400C120126CB
:1006900006FA04F41688344013B10CB1012000E0CE
:1006A000002070BD01468888C0F30800704700BF75
:1006B000FEE7014600BF704710B500BFFC2000F008
:1006C000CDF900F065F80020B0F5004FF6D010BD70
:1006D00010B504466FF00400FFF72CFFE11704EBA0
:1006E0005171C1F3C701074A11701046007800EB41
:1006F0004001C1EBC0104FF6FF7101EAC000024992
:10070000088010BD000000200200002070B50446E3
:100710004FF4077094FBF0F0C6B24FF4077094FBEF
:10072000F0F100FB114085B205E04FF4077000F0D6
:1007300009F8701EC6B2002EF7D115B1284600F098
:1007400001F870BD0146114A12884A434FF0E02378
:100750005A6100229A611A46126942F001021A6136
:1007600000BF4FF0E022106900F001021AB100F45E
:100770008032002AF5D04FF0E022126922F0010207
:100780004FF0E0231A6100229A61704702000020B6
:1007900070B50026002500241FE07006060E4FF4F9
:1007A00080412448FFF7FAFD1920FFF794FD4FF42C
:1007B00080412048FFF7F4FD1420FFF78CFD4FF433
:1007C00080411C48FFF7EAFD08211B48FFF7DDFDCB
:1007D00008B1701CC6B2601CC4B2082CDDDB00245A
:1007E0001FE06806050E4FF480411248FFF7D6FD62
:1007F0001920FFF770FD4FF480410E48FFF7D0FD40
:100800001920FFF768FD4FF480410A48FFF7C6FD45
:1008100008210948FFF7B9FD08B1681CC5B2601C82
:10082000C4B2082CDDDB06F0F00005F00F0108442F
:10083000C0B270BD001402400010024010B501208B
:1008400000F0FCF810BD10B540F6FF70FFF743FD57
:10085000302000F0F3F80C2000F0F0F8012000F058
:10086000EDF8022000F0EAF8802000F0E7F810BD73
:1008700070B505460C46012D06D0022D09D0032D7A
:100880000CD0042D14D10EE044F0800000F0D6F816
:100890000FE044F0900000F0D1F80AE044F0880046
:1008A00000F0CCF805E044F0980000F0C7F800E054
:1008B00000BF00BF70BD2DE9F04106460F4614464B
:1008C00039463046FFF7D4FF002504E0605D00F0B4
:1008D000EFF8681CC5B2605D0028F7D1BDE8F08173
:1008E000A820FFF7F5FE00F09DF81420FFF70EFF9B
:1008F000FFF7A4FF0A20FFF709FFFFF755FD34E0DB
:1009000010211A48FFF738FD012813D118A2002141
:10091000FFF7D1FF1BA203210220FFF7CCFF1BA290
:1009200002210320FFF7C7FF1BA201210420FFF7CC
:10093000C2FF1AE0FFF782FF15E01420FFF7E6FE82
:1009400019A202210846FFF7B6FF1AA201210320CF
:10095000FFF7B1FF10210548FFF70EFD012802D176
:10096000FFF76CFF00E0E8E700BFC9E700100240B6
:10097000D0C5CFA2BFC6D1A7BCBCCAF5D1A7D4BA37
:1009800000000000BAFAEEA3000000005042313728
:1009900030363131323400003137BCB6D0C5D4BA2C
:1009A0003031B0E000000000CEA2BBFAD4ADC0ED03
:1009B00000000000D3EBC7B6C8EBCABDCFB5CDB3BE
:1009C000000000001CB501216020FFF72BFD4FF453
:1009D0004040009001208DF8040000208DF80600B2
:1009E00003208DF8050001208DF8070069460B48AB
:1009F000FFF77AFC0220009001208DF8040000200F
:100A00008DF8060003208DF8050001208DF8070001
:100A100069460348FFF768FC1CBD00000014024053
:100A20000018024010B5FFF7CDFF02210248FFF782
:100A3000B7FCFFF708FF10BD0018024010B50446D0
:100A4000FFF73AFEF82000F009F804F0F00000F09B
:100A500005F82107080E00F001F810BD70B5044636
:100A6000002520E004F08000802803D101020F4817
:100A7000FFF796FC04F0800020B94FF400410B48CA
:100A8000FFF78CFC4FF480410848FFF787FC2320D8
:100A9000FFF721FC4FF480410448FFF781FC60061A
:100AA000040E681CC5B2082DDCDB70BD00140240CA
:100AB00010B50446FFF700FEFA20FFF7CFFF04F061
:100AC000F000FFF7CBFF2107080EFFF7C7FF10BDAF
:100AD0004FF04070E1EE100A70470000FC0A000879
:100AE000000000200C000000C4010008080B0008F2
:100AF0000C0000202C070000E001000800000000AE
:080B00000000000000000000ED
:040000050800018965
:00000001FF
